{
  "_format": "hh-sol-artifact-1",
  "contractName": "CertificateVerification",
  "sourceName": "contracts/CertificateVerification.sol",
  "abi": [
    {
      "inputs": [],
      "stateMutability": "nonpayable",
      "type": "constructor"
    },
    {
      "anonymous": false,
      "inputs": [
        {
          "indexed": false,
          "internalType": "string",
          "name": "universityName",
          "type": "string"
        },
        {
          "indexed": false,
          "internalType": "string",
          "name": "registrationNumber",
          "type": "string"
        },
        {
          "indexed": false,
          "internalType": "string",
          "name": "hash",
          "type": "string"
        },
        {
          "indexed": false,
          "internalType": "bytes32",
          "name": "message",
          "type": "bytes32"
        }
      ],
      "name": "CertificateAdded",
      "type": "event"
    },
    {
      "anonymous": false,
      "inputs": [
        {
          "indexed": false,
          "internalType": "bytes32",
          "name": "message",
          "type": "bytes32"
        }
      ],
      "name": "CertificateFetched",
      "type": "event"
    },
    {
      "inputs": [
        {
          "internalType": "string",
          "name": "_universityName",
          "type": "string"
        },
        {
          "internalType": "string",
          "name": "_registrationNumber",
          "type": "string"
        },
        {
          "internalType": "string",
          "name": "_hash",
          "type": "string"
        }
      ],
      "name": "addCertificate",
      "outputs": [],
      "stateMutability": "nonpayable",
      "type": "function"
    },
    {
      "inputs": [
        {
          "internalType": "string",
          "name": "_universityName",
          "type": "string"
        },
        {
          "internalType": "address",
          "name": "_address",
          "type": "address"
        }
      ],
      "name": "assignRegistrar",
      "outputs": [],
      "stateMutability": "nonpayable",
      "type": "function"
    },
    {
      "inputs": [
        {
          "internalType": "string",
          "name": "",
          "type": "string"
        },
        {
          "internalType": "string",
          "name": "",
          "type": "string"
        }
      ],
      "name": "certificate",
      "outputs": [
        {
          "internalType": "string",
          "name": "universityName",
          "type": "string"
        },
        {
          "internalType": "string",
          "name": "hash",
          "type": "string"
        },
        {
          "internalType": "string",
          "name": "registrationNumber",
          "type": "string"
        }
      ],
      "stateMutability": "view",
      "type": "function"
    },
    {
      "inputs": [
        {
          "internalType": "string",
          "name": "a",
          "type": "string"
        },
        {
          "internalType": "string",
          "name": "b",
          "type": "string"
        }
      ],
      "name": "compareStrings",
      "outputs": [
        {
          "internalType": "bool",
          "name": "",
          "type": "bool"
        }
      ],
      "stateMutability": "pure",
      "type": "function"
    },
    {
      "inputs": [
        {
          "internalType": "string",
          "name": "_universityName",
          "type": "string"
        },
        {
          "internalType": "string",
          "name": "_registrationNumber",
          "type": "string"
        }
      ],
      "name": "getCertificate",
      "outputs": [
        {
          "components": [
            {
              "internalType": "string",
              "name": "universityName",
              "type": "string"
            },
            {
              "internalType": "string",
              "name": "hash",
              "type": "string"
            },
            {
              "internalType": "string",
              "name": "registrationNumber",
              "type": "string"
            }
          ],
          "internalType": "struct CertificateVerification.Certificate",
          "name": "",
          "type": "tuple"
        }
      ],
      "stateMutability": "view",
      "type": "function"
    },
    {
      "inputs": [
        {
          "internalType": "address",
          "name": "_address",
          "type": "address"
        }
      ],
      "name": "getRegistrar",
      "outputs": [
        {
          "components": [
            {
              "internalType": "string",
              "name": "universityName",
              "type": "string"
            },
            {
              "internalType": "address",
              "name": "registrarAddress",
              "type": "address"
            }
          ],
          "internalType": "struct CertificateVerification.Registrar",
          "name": "",
          "type": "tuple"
        }
      ],
      "stateMutability": "view",
      "type": "function"
    },
    {
      "inputs": [
        {
          "internalType": "string",
          "name": "",
          "type": "string"
        },
        {
          "internalType": "string",
          "name": "",
          "type": "string"
        }
      ],
      "name": "isAdded",
      "outputs": [
        {
          "internalType": "bool",
          "name": "",
          "type": "bool"
        }
      ],
      "stateMutability": "view",
      "type": "function"
    },
    {
      "inputs": [
        {
          "internalType": "address",
          "name": "_address",
          "type": "address"
        }
      ],
      "name": "isAddressRegistrar",
      "outputs": [
        {
          "internalType": "bool",
          "name": "",
          "type": "bool"
        }
      ],
      "stateMutability": "view",
      "type": "function"
    },
    {
      "inputs": [
        {
          "internalType": "address",
          "name": "_address",
          "type": "address"
        }
      ],
      "name": "isOwner",
      "outputs": [
        {
          "internalType": "bool",
          "name": "",
          "type": "bool"
        }
      ],
      "stateMutability": "view",
      "type": "function"
    },
    {
      "inputs": [
        {
          "internalType": "string",
          "name": "",
          "type": "string"
        },
        {
          "internalType": "address",
          "name": "",
          "type": "address"
        }
      ],
      "name": "isRegistrar",
      "outputs": [
        {
          "internalType": "bool",
          "name": "",
          "type": "bool"
        }
      ],
      "stateMutability": "view",
      "type": "function"
    },
    {
      "inputs": [],
      "name": "owner",
      "outputs": [
        {
          "internalType": "address",
          "name": "",
          "type": "address"
        }
      ],
      "stateMutability": "view",
      "type": "function"
    },
    {
      "inputs": [
        {
          "internalType": "address",
          "name": "",
          "type": "address"
        }
      ],
      "name": "registrar",
      "outputs": [
        {
          "internalType": "string",
          "name": "universityName",
          "type": "string"
        },
        {
          "internalType": "address",
          "name": "registrarAddress",
          "type": "address"
        }
      ],
      "stateMutability": "view",
      "type": "function"
    },
    {
      "inputs": [
        {
          "internalType": "string",
          "name": "",
          "type": "string"
        },
        {
          "internalType": "address",
          "name": "",
          "type": "address"
        }
      ],
      "name": "registrars",
      "outputs": [
        {
          "internalType": "string",
          "name": "universityName",
          "type": "string"
        },
        {
          "internalType": "address",
          "name": "registrarAddress",
          "type": "address"
        }
      ],
      "stateMutability": "view",
      "type": "function"
    }
  ],
  "bytecode": "0x608060405234801561001057600080fd5b50336000806101000a81548173ffffffffffffffffffffffffffffffffffffffff021916908373ffffffffffffffffffffffffffffffffffffffff16021790555061216f806100606000396000f3fe608060405234801561001057600080fd5b50600436106100cf5760003560e01c80639e3e91191161008c578063d1516c6f11610066578063d1516c6f14610260578063e397cb9e1461027c578063f6356114146102ad578063fe222dc0146102de576100cf565b80639e3e9119146101e4578063ac9e576014610214578063bed34bba14610230576100cf565b80630dd2e876146100d45780632f54bf6e146101045780633650fe02146101345780636c16275a146101665780637a7f57bc146101965780638da5cb5b146101c6575b600080fd5b6100ee60048036038101906100e9919061141d565b61030e565b6040516100fb919061158c565b60405180910390f35b61011e6004803603810190610119919061160c565b610525565b60405161012b9190611654565b60405180910390f35b61014e6004803603810190610149919061179f565b61058e565b60405161015d93929190611861565b60405180910390f35b610180600480360381019061017b919061160c565b610789565b60405161018d9190611654565b60405180910390f35b6101b060048036038101906101ab919061179f565b61083c565b6040516101bd9190611654565b60405180910390f35b6101ce610897565b6040516101db91906118bc565b60405180910390f35b6101fe60048036038101906101f9919061160c565b6108bb565b60405161020b9190611923565b60405180910390f35b61022e60048036038101906102299190611945565b610a02565b005b61024a6004803603810190610245919061179f565b610e1f565b6040516102579190611654565b60405180910390f35b61027a600480360381019061027591906119f9565b610e78565b005b6102966004803603810190610291919061160c565b611153565b6040516102a4929190611a59565b60405180910390f35b6102c760048036038101906102c29190611a89565b61121f565b6040516102d5929190611a59565b60405180910390f35b6102f860048036038101906102f39190611a89565b61130e565b6040516103059190611654565b60405180910390f35b610316611353565b60006003868660405161032a929190611b15565b90815260200160405180910390208484604051610348929190611b15565b908152602001604051809103902090508060405180606001604052908160008201805461037490611b5d565b80601f01602080910402602001604051908101604052809291908181526020018280546103a090611b5d565b80156103ed5780601f106103c2576101008083540402835291602001916103ed565b820191906000526020600020905b8154815290600101906020018083116103d057829003601f168201915b5050505050815260200160018201805461040690611b5d565b80601f016020809104026020016040519081016040528092919081815260200182805461043290611b5d565b801561047f5780601f106104545761010080835404028352916020019161047f565b820191906000526020600020905b81548152906001019060200180831161046257829003601f168201915b5050505050815260200160028201805461049890611b5d565b80601f01602080910402602001604051908101604052809291908181526020018280546104c490611b5d565b80156105115780601f106104e657610100808354040283529160200191610511565b820191906000526020600020905b8154815290600101906020018083116104f457829003601f168201915b505050505081525050915050949350505050565b60008060009054906101000a900473ffffffffffffffffffffffffffffffffffffffff1673ffffffffffffffffffffffffffffffffffffffff168273ffffffffffffffffffffffffffffffffffffffff16036105845760019050610589565b600090505b919050565b60038280516020810182018051848252602083016020850120818352809550505050505081805160208101820180518482526020830160208501208183528095505050505050600091509150508060000180546105ea90611b5d565b80601f016020809104026020016040519081016040528092919081815260200182805461061690611b5d565b80156106635780601f1061063857610100808354040283529160200191610663565b820191906000526020600020905b81548152906001019060200180831161064657829003601f168201915b50505050509080600101805461067890611b5d565b80601f01602080910402602001604051908101604052809291908181526020018280546106a490611b5d565b80156106f15780601f106106c6576101008083540402835291602001916106f1565b820191906000526020600020905b8154815290600101906020018083116106d457829003601f168201915b50505050509080600201805461070690611b5d565b80601f016020809104026020016040519081016040528092919081815260200182805461073290611b5d565b801561077f5780601f106107545761010080835404028352916020019161077f565b820191906000526020600020905b81548152906001019060200180831161076257829003601f168201915b5050505050905083565b60006004600160008473ffffffffffffffffffffffffffffffffffffffff1673ffffffffffffffffffffffffffffffffffffffff1681526020019081526020016000206000016040516107dc9190611c26565b908152602001604051809103902060008373ffffffffffffffffffffffffffffffffffffffff1673ffffffffffffffffffffffffffffffffffffffff16815260200190815260200160002060009054906101000a900460ff169050919050565b600582805160208101820180518482526020830160208501208183528095505050505050818051602081018201805184825260208301602085012081835280955050505050506000915091509054906101000a900460ff1681565b60008054906101000a900473ffffffffffffffffffffffffffffffffffffffff1681565b6108c3611374565b6000600160008473ffffffffffffffffffffffffffffffffffffffff1673ffffffffffffffffffffffffffffffffffffffff16815260200190815260200160002090508060405180604001604052908160008201805461092290611b5d565b80601f016020809104026020016040519081016040528092919081815260200182805461094e90611b5d565b801561099b5780601f106109705761010080835404028352916020019161099b565b820191906000526020600020905b81548152906001019060200180831161097e57829003601f168201915b505050505081526020016001820160009054906101000a900473ffffffffffffffffffffffffffffffffffffffff1673ffffffffffffffffffffffffffffffffffffffff1673ffffffffffffffffffffffffffffffffffffffff1681525050915050919050565b60058686604051610a14929190611b15565b90815260200160405180910390208484604051610a32929190611b15565b908152602001604051809103902060009054906101000a900460ff1615610a8e576040517f08c379a0000000000000000000000000000000000000000000000000000000008152600401610a8590611c89565b60405180910390fd5b600060028787604051610aa2929190611b15565b908152602001604051809103902060003373ffffffffffffffffffffffffffffffffffffffff1673ffffffffffffffffffffffffffffffffffffffff16815260200190815260200160002090506000610bcb826000018054610b0390611b5d565b80601f0160208091040260200160405190810160405280929190818152602001828054610b2f90611b5d565b8015610b7c5780601f10610b5157610100808354040283529160200191610b7c565b820191906000526020600020905b815481529060010190602001808311610b5f57829003601f168201915b505050505089898080601f016020809104026020016040519081016040528093929190818152602001838380828437600081840152601f19601f82011690508083019250505050505050610e1f565b905080610c0d576040517f08c379a0000000000000000000000000000000000000000000000000000000008152600401610c0490611d1b565b60405180910390fd5b600060405180606001604052808a8a8080601f016020809104026020016040519081016040528093929190818152602001838380828437600081840152601f19601f82011690508083019250505050505050815260200186868080601f016020809104026020016040519081016040528093929190818152602001838380828437600081840152601f19601f82011690508083019250505050505050815260200188888080601f016020809104026020016040519081016040528093929190818152602001838380828437600081840152601f19601f8201169050808301925050505050505081525090508060038a8a604051610d0b929190611b15565b90815260200160405180910390208888604051610d29929190611b15565b90815260200160405180910390206000820151816000019081610d4c9190611edc565b506020820151816001019081610d629190611edc565b506040820151816002019081610d789190611edc565b50905050600160058a8a604051610d90929190611b15565b90815260200160405180910390208888604051610dae929190611b15565b908152602001604051809103902060006101000a81548160ff0219169083151502179055507f83578a73a4c3a7c76663015e244ba32c50fba3d5fbc64a08394a6a5083f6b059898989898989604051610e0c96959493929190612001565b60405180910390a1505050505050505050565b600081604051602001610e329190612090565b6040516020818303038152906040528051906020012083604051602001610e599190612090565b6040516020818303038152906040528051906020012014905092915050565b60008054906101000a900473ffffffffffffffffffffffffffffffffffffffff1673ffffffffffffffffffffffffffffffffffffffff163373ffffffffffffffffffffffffffffffffffffffff1614610f06576040517f08c379a0000000000000000000000000000000000000000000000000000000008152600401610efd90612119565b60405180910390fd5b600160048484604051610f1a929190611b15565b908152602001604051809103902060008373ffffffffffffffffffffffffffffffffffffffff1673ffffffffffffffffffffffffffffffffffffffff16815260200190815260200160002060006101000a81548160ff0219169083151502179055506000604051806040016040528085858080601f016020809104026020016040519081016040528093929190818152602001838380828437600081840152601f19601f8201169050808301925050505050505081526020018373ffffffffffffffffffffffffffffffffffffffff1681525090508060028585604051611002929190611b15565b908152602001604051809103902060008473ffffffffffffffffffffffffffffffffffffffff1673ffffffffffffffffffffffffffffffffffffffff16815260200190815260200160002060008201518160000190816110629190611edc565b5060208201518160010160006101000a81548173ffffffffffffffffffffffffffffffffffffffff021916908373ffffffffffffffffffffffffffffffffffffffff16021790555090505080600160008473ffffffffffffffffffffffffffffffffffffffff1673ffffffffffffffffffffffffffffffffffffffff16815260200190815260200160002060008201518160000190816111029190611edc565b5060208201518160010160006101000a81548173ffffffffffffffffffffffffffffffffffffffff021916908373ffffffffffffffffffffffffffffffffffffffff16021790555090505050505050565b600160205280600052604060002060009150905080600001805461117690611b5d565b80601f01602080910402602001604051908101604052809291908181526020018280546111a290611b5d565b80156111ef5780601f106111c4576101008083540402835291602001916111ef565b820191906000526020600020905b8154815290600101906020018083116111d257829003601f168201915b5050505050908060010160009054906101000a900473ffffffffffffffffffffffffffffffffffffffff16905082565b6002828051602081018201805184825260208301602085012081835280955050505050506020528060005260406000206000915091505080600001805461126590611b5d565b80601f016020809104026020016040519081016040528092919081815260200182805461129190611b5d565b80156112de5780601f106112b3576101008083540402835291602001916112de565b820191906000526020600020905b8154815290600101906020018083116112c157829003601f168201915b5050505050908060010160009054906101000a900473ffffffffffffffffffffffffffffffffffffffff16905082565b6004828051602081018201805184825260208301602085012081835280955050505050506020528060005260406000206000915091509054906101000a900460ff1681565b60405180606001604052806060815260200160608152602001606081525090565b604051806040016040528060608152602001600073ffffffffffffffffffffffffffffffffffffffff1681525090565b6000604051905090565b600080fd5b600080fd5b600080fd5b600080fd5b600080fd5b60008083601f8401126113dd576113dc6113b8565b5b8235905067ffffffffffffffff8111156113fa576113f96113bd565b5b602083019150836001820283011115611416576114156113c2565b5b9250929050565b60008060008060408587031215611437576114366113ae565b5b600085013567ffffffffffffffff811115611455576114546113b3565b5b611461878288016113c7565b9450945050602085013567ffffffffffffffff811115611484576114836113b3565b5b611490878288016113c7565b925092505092959194509250565b600081519050919050565b600082825260208201905092915050565b60005b838110156114d85780820151818401526020810190506114bd565b60008484015250505050565b6000601f19601f8301169050919050565b60006115008261149e565b61150a81856114a9565b935061151a8185602086016114ba565b611523816114e4565b840191505092915050565b6000606083016000830151848203600086015261154b82826114f5565b9150506020830151848203602086015261156582826114f5565b9150506040830151848203604086015261157f82826114f5565b9150508091505092915050565b600060208201905081810360008301526115a6818461152e565b905092915050565b600073ffffffffffffffffffffffffffffffffffffffff82169050919050565b60006115d9826115ae565b9050919050565b6115e9816115ce565b81146115f457600080fd5b50565b600081359050611606816115e0565b92915050565b600060208284031215611622576116216113ae565b5b6000611630848285016115f7565b91505092915050565b60008115159050919050565b61164e81611639565b82525050565b60006020820190506116696000830184611645565b92915050565b600080fd5b7f4e487b7100000000000000000000000000000000000000000000000000000000600052604160045260246000fd5b6116ac826114e4565b810181811067ffffffffffffffff821117156116cb576116ca611674565b5b80604052505050565b60006116de6113a4565b90506116ea82826116a3565b919050565b600067ffffffffffffffff82111561170a57611709611674565b5b611713826114e4565b9050602081019050919050565b82818337600083830152505050565b600061174261173d846116ef565b6116d4565b90508281526020810184848401111561175e5761175d61166f565b5b611769848285611720565b509392505050565b600082601f830112611786576117856113b8565b5b813561179684826020860161172f565b91505092915050565b600080604083850312156117b6576117b56113ae565b5b600083013567ffffffffffffffff8111156117d4576117d36113b3565b5b6117e085828601611771565b925050602083013567ffffffffffffffff811115611801576118006113b3565b5b61180d85828601611771565b9150509250929050565b600082825260208201905092915050565b60006118338261149e565b61183d8185611817565b935061184d8185602086016114ba565b611856816114e4565b840191505092915050565b6000606082019050818103600083015261187b8186611828565b9050818103602083015261188f8185611828565b905081810360408301526118a38184611828565b9050949350505050565b6118b6816115ce565b82525050565b60006020820190506118d160008301846118ad565b92915050565b6118e0816115ce565b82525050565b6000604083016000830151848203600086015261190382826114f5565b915050602083015161191860208601826118d7565b508091505092915050565b6000602082019050818103600083015261193d81846118e6565b905092915050565b60008060008060008060608789031215611962576119616113ae565b5b600087013567ffffffffffffffff8111156119805761197f6113b3565b5b61198c89828a016113c7565b9650965050602087013567ffffffffffffffff8111156119af576119ae6113b3565b5b6119bb89828a016113c7565b9450945050604087013567ffffffffffffffff8111156119de576119dd6113b3565b5b6119ea89828a016113c7565b92509250509295509295509295565b600080600060408486031215611a1257611a116113ae565b5b600084013567ffffffffffffffff811115611a3057611a2f6113b3565b5b611a3c868287016113c7565b93509350506020611a4f868287016115f7565b9150509250925092565b60006040820190508181036000830152611a738185611828565b9050611a8260208301846118ad565b9392505050565b60008060408385031215611aa057611a9f6113ae565b5b600083013567ffffffffffffffff811115611abe57611abd6113b3565b5b611aca85828601611771565b9250506020611adb858286016115f7565b9150509250929050565b600081905092915050565b6000611afc8385611ae5565b9350611b09838584611720565b82840190509392505050565b6000611b22828486611af0565b91508190509392505050565b7f4e487b7100000000000000000000000000000000000000000000000000000000600052602260045260246000fd5b60006002820490506001821680611b7557607f821691505b602082108103611b8857611b87611b2e565b5b50919050565b60008190508160005260206000209050919050565b60008154611bb081611b5d565b611bba8186611ae5565b94506001821660008114611bd55760018114611bea57611c1d565b60ff1983168652811515820286019350611c1d565b611bf385611b8e565b60005b83811015611c1557815481890152600182019150602081019050611bf6565b838801955050505b50505092915050565b6000611c328284611ba3565b915081905092915050565b7f53747564656e7420616c72656164792061646465640000000000000000000000600082015250565b6000611c73601583611817565b9150611c7e82611c3d565b602082019050919050565b60006020820190508181036000830152611ca281611c66565b9050919050565b7f506c6561736520616464206f6e6c79206365727469666963617465732074686160008201527f742062656c6f6e6720746f20796f757220756e76696572736974790000000000602082015250565b6000611d05603b83611817565b9150611d1082611ca9565b604082019050919050565b60006020820190508181036000830152611d3481611cf8565b9050919050565b60006020601f8301049050919050565b600082821b905092915050565b600060088302611d887fffffffffffffffffffffffffffffffffffffffffffffffffffffffffffffffff82611d4b565b611d928683611d4b565b95508019841693508086168417925050509392505050565b6000819050919050565b6000819050919050565b6000611dd9611dd4611dcf84611daa565b611db4565b611daa565b9050919050565b6000819050919050565b611df383611dbe565b611e07611dff82611de0565b848454611d58565b825550505050565b600090565b611e1c611e0f565b611e27818484611dea565b505050565b5b81811015611e4b57611e40600082611e14565b600181019050611e2d565b5050565b601f821115611e9057611e6181611b8e565b611e6a84611d3b565b81016020851015611e79578190505b611e8d611e8585611d3b565b830182611e2c565b50505b505050565b600082821c905092915050565b6000611eb360001984600802611e95565b1980831691505092915050565b6000611ecc8383611ea2565b9150826002028217905092915050565b611ee58261149e565b67ffffffffffffffff811115611efe57611efd611674565b5b611f088254611b5d565b611f13828285611e4f565b600060209050601f831160018114611f465760008415611f34578287015190505b611f3e8582611ec0565b865550611fa6565b601f198416611f5486611b8e565b60005b82811015611f7c57848901518255600182019150602085019450602081019050611f57565b86831015611f995784890151611f95601f891682611ea2565b8355505b6001600288020188555050505b505050505050565b6000611fba8385611817565b9350611fc7838584611720565b611fd0836114e4565b840190509392505050565b7f43657274696669636174652055706c6f616465642073756363657366756c6c79815250565b6000608082019050818103600083015261201c81888a611fae565b90508181036020830152612031818688611fae565b90508181036040830152612046818486611fae565b905061205460608301611fdb565b979650505050505050565b600061206a8261149e565b6120748185611ae5565b93506120848185602086016114ba565b80840191505092915050565b600061209c828461205f565b915081905092915050565b7f4f6e6c79206f776e65722063616e20616363657373207468697320666561747560008201527f7265000000000000000000000000000000000000000000000000000000000000602082015250565b6000612103602283611817565b915061210e826120a7565b604082019050919050565b60006020820190508181036000830152612132816120f6565b905091905056fea2646970667358221220d3f5a0b80431c2246b402659fd9f796863c4701319c461482c2615f517df600364736f6c63430008130033",
  "linkReferences": {},
  "deployedLinkReferences": {}
}