{
  "_format": "hh-sol-artifact-1",
  "contractName": "CertificateVerification",
  "sourceName": "contracts/CertificateVerification.sol",
  "abi": [
    {
      "inputs": [],
      "stateMutability": "nonpayable",
      "type": "constructor"
    },
    {
      "anonymous": false,
      "inputs": [
        {
          "indexed": false,
          "internalType": "string",
          "name": "universityName",
          "type": "string"
        },
        {
          "indexed": false,
          "internalType": "string",
          "name": "registrationNumber",
          "type": "string"
        },
        {
          "indexed": false,
          "internalType": "string",
          "name": "hash",
          "type": "string"
        },
        {
          "indexed": false,
          "internalType": "bytes32",
          "name": "message",
          "type": "bytes32"
        }
      ],
      "name": "CertificateAdded",
      "type": "event"
    },
    {
      "anonymous": false,
      "inputs": [
        {
          "indexed": false,
          "internalType": "bytes32",
          "name": "message",
          "type": "bytes32"
        }
      ],
      "name": "CertificateFetched",
      "type": "event"
    },
    {
      "inputs": [
        {
          "internalType": "address",
          "name": "_address",
          "type": "address"
        }
      ],
      "name": "_isOwner",
      "outputs": [
        {
          "internalType": "bool",
          "name": "",
          "type": "bool"
        }
      ],
      "stateMutability": "view",
      "type": "function"
    },
    {
      "inputs": [
        {
          "internalType": "string",
          "name": "_universityName",
          "type": "string"
        },
        {
          "internalType": "string",
          "name": "_registrationNumber",
          "type": "string"
        },
        {
          "internalType": "string",
          "name": "_hash",
          "type": "string"
        },
        {
          "internalType": "string",
          "name": "_photoHash",
          "type": "string"
        }
      ],
      "name": "addCertificate",
      "outputs": [],
      "stateMutability": "nonpayable",
      "type": "function"
    },
    {
      "inputs": [
        {
          "internalType": "string",
          "name": "_universityName",
          "type": "string"
        },
        {
          "internalType": "address",
          "name": "_address",
          "type": "address"
        }
      ],
      "name": "assignRegistrar",
      "outputs": [],
      "stateMutability": "nonpayable",
      "type": "function"
    },
    {
      "inputs": [
        {
          "internalType": "string",
          "name": "",
          "type": "string"
        },
        {
          "internalType": "string",
          "name": "",
          "type": "string"
        }
      ],
      "name": "certificate",
      "outputs": [
        {
          "internalType": "string",
          "name": "universityName",
          "type": "string"
        },
        {
          "internalType": "string",
          "name": "hash",
          "type": "string"
        },
        {
          "internalType": "string",
          "name": "registrationNumber",
          "type": "string"
        },
        {
          "internalType": "string",
          "name": "photoHash",
          "type": "string"
        }
      ],
      "stateMutability": "view",
      "type": "function"
    },
    {
      "inputs": [
        {
          "internalType": "string",
          "name": "a",
          "type": "string"
        },
        {
          "internalType": "string",
          "name": "b",
          "type": "string"
        }
      ],
      "name": "compareStrings",
      "outputs": [
        {
          "internalType": "bool",
          "name": "",
          "type": "bool"
        }
      ],
      "stateMutability": "pure",
      "type": "function"
    },
    {
      "inputs": [
        {
          "internalType": "string",
          "name": "_universityName",
          "type": "string"
        },
        {
          "internalType": "string",
          "name": "_registrationNumber",
          "type": "string"
        }
      ],
      "name": "getCertificate",
      "outputs": [
        {
          "components": [
            {
              "internalType": "string",
              "name": "universityName",
              "type": "string"
            },
            {
              "internalType": "string",
              "name": "hash",
              "type": "string"
            },
            {
              "internalType": "string",
              "name": "registrationNumber",
              "type": "string"
            },
            {
              "internalType": "string",
              "name": "photoHash",
              "type": "string"
            }
          ],
          "internalType": "struct CertificateVerification.Certificate",
          "name": "",
          "type": "tuple"
        }
      ],
      "stateMutability": "view",
      "type": "function"
    },
    {
      "inputs": [
        {
          "internalType": "address",
          "name": "_address",
          "type": "address"
        }
      ],
      "name": "getRegistrar",
      "outputs": [
        {
          "components": [
            {
              "internalType": "string",
              "name": "universityName",
              "type": "string"
            },
            {
              "internalType": "address",
              "name": "registrarAddress",
              "type": "address"
            }
          ],
          "internalType": "struct CertificateVerification.Registrar",
          "name": "",
          "type": "tuple"
        }
      ],
      "stateMutability": "view",
      "type": "function"
    },
    {
      "inputs": [
        {
          "internalType": "string",
          "name": "",
          "type": "string"
        },
        {
          "internalType": "string",
          "name": "",
          "type": "string"
        }
      ],
      "name": "isAdded",
      "outputs": [
        {
          "internalType": "bool",
          "name": "",
          "type": "bool"
        }
      ],
      "stateMutability": "view",
      "type": "function"
    },
    {
      "inputs": [
        {
          "internalType": "address",
          "name": "_address",
          "type": "address"
        }
      ],
      "name": "isAddressRegistrar",
      "outputs": [
        {
          "internalType": "bool",
          "name": "",
          "type": "bool"
        }
      ],
      "stateMutability": "view",
      "type": "function"
    },
    {
      "inputs": [
        {
          "internalType": "string",
          "name": "",
          "type": "string"
        },
        {
          "internalType": "address",
          "name": "",
          "type": "address"
        }
      ],
      "name": "isRegistrar",
      "outputs": [
        {
          "internalType": "bool",
          "name": "",
          "type": "bool"
        }
      ],
      "stateMutability": "view",
      "type": "function"
    },
    {
      "inputs": [],
      "name": "owner",
      "outputs": [
        {
          "internalType": "address",
          "name": "",
          "type": "address"
        }
      ],
      "stateMutability": "view",
      "type": "function"
    },
    {
      "inputs": [
        {
          "internalType": "address",
          "name": "",
          "type": "address"
        }
      ],
      "name": "registrar",
      "outputs": [
        {
          "internalType": "string",
          "name": "universityName",
          "type": "string"
        },
        {
          "internalType": "address",
          "name": "registrarAddress",
          "type": "address"
        }
      ],
      "stateMutability": "view",
      "type": "function"
    },
    {
      "inputs": [
        {
          "internalType": "string",
          "name": "",
          "type": "string"
        },
        {
          "internalType": "address",
          "name": "",
          "type": "address"
        }
      ],
      "name": "registrars",
      "outputs": [
        {
          "internalType": "string",
          "name": "universityName",
          "type": "string"
        },
        {
          "internalType": "address",
          "name": "registrarAddress",
          "type": "address"
        }
      ],
      "stateMutability": "view",
      "type": "function"
    }
  ],
  "bytecode": "0x608060405234801561001057600080fd5b50336000806101000a81548173ffffffffffffffffffffffffffffffffffffffff021916908373ffffffffffffffffffffffffffffffffffffffff16021790555061247a806100606000396000f3fe608060405234801561001057600080fd5b50600436106100cf5760003560e01c80639e3e91191161008c578063d1516c6f11610066578063d1516c6f14610261578063e397cb9e1461027d578063f6356114146102ae578063fe222dc0146102df576100cf565b80639e3e9119146101d1578063b71fbe4b14610201578063bed34bba14610231576100cf565b80630dd2e876146100d45780633650fe02146101045780636c16275a1461013757806372c44638146101675780637a7f57bc146101835780638da5cb5b146101b3575b600080fd5b6100ee60048036038101906100e99190611632565b61030f565b6040516100fb91906117bb565b60405180910390f35b61011e6004803603810190610119919061190d565b610643565b60405161012e94939291906119cf565b60405180910390f35b610151600480360381019061014c9190611a8e565b6108cc565b60405161015e9190611ad6565b60405180910390f35b610181600480360381019061017c9190611af1565b61097f565b005b61019d6004803603810190610198919061190d565b610dfe565b6040516101aa9190611ad6565b60405180910390f35b6101bb610e59565b6040516101c89190611be9565b60405180910390f35b6101eb60048036038101906101e69190611a8e565b610e7d565b6040516101f89190611c50565b60405180910390f35b61021b60048036038101906102169190611a8e565b610fc4565b6040516102289190611ad6565b60405180910390f35b61024b6004803603810190610246919061190d565b61102d565b6040516102589190611ad6565b60405180910390f35b61027b60048036038101906102769190611c72565b611086565b005b61029760048036038101906102929190611a8e565b611361565b6040516102a5929190611cd2565b60405180910390f35b6102c860048036038101906102c39190611d02565b61142d565b6040516102d6929190611cd2565b60405180910390f35b6102f960048036038101906102f49190611d02565b61151c565b6040516103069190611ad6565b60405180910390f35b610317611561565b60058585604051610329929190611d8e565b90815260200160405180910390208383604051610347929190611d8e565b908152602001604051809103902060009054906101000a900460ff166103a2576040517f08c379a000000000000000000000000000000000000000000000000000000000815260040161039990611e19565b60405180910390fd5b6000600386866040516103b6929190611d8e565b908152602001604051809103902084846040516103d4929190611d8e565b908152602001604051809103902090508060405180608001604052908160008201805461040090611e68565b80601f016020809104026020016040519081016040528092919081815260200182805461042c90611e68565b80156104795780601f1061044e57610100808354040283529160200191610479565b820191906000526020600020905b81548152906001019060200180831161045c57829003601f168201915b5050505050815260200160018201805461049290611e68565b80601f01602080910402602001604051908101604052809291908181526020018280546104be90611e68565b801561050b5780601f106104e05761010080835404028352916020019161050b565b820191906000526020600020905b8154815290600101906020018083116104ee57829003601f168201915b5050505050815260200160028201805461052490611e68565b80601f016020809104026020016040519081016040528092919081815260200182805461055090611e68565b801561059d5780601f106105725761010080835404028352916020019161059d565b820191906000526020600020905b81548152906001019060200180831161058057829003601f168201915b505050505081526020016003820180546105b690611e68565b80601f01602080910402602001604051908101604052809291908181526020018280546105e290611e68565b801561062f5780601f106106045761010080835404028352916020019161062f565b820191906000526020600020905b81548152906001019060200180831161061257829003601f168201915b505050505081525050915050949350505050565b600382805160208101820180518482526020830160208501208183528095505050505050818051602081018201805184825260208301602085012081835280955050505050506000915091505080600001805461069f90611e68565b80601f01602080910402602001604051908101604052809291908181526020018280546106cb90611e68565b80156107185780601f106106ed57610100808354040283529160200191610718565b820191906000526020600020905b8154815290600101906020018083116106fb57829003601f168201915b50505050509080600101805461072d90611e68565b80601f016020809104026020016040519081016040528092919081815260200182805461075990611e68565b80156107a65780601f1061077b576101008083540402835291602001916107a6565b820191906000526020600020905b81548152906001019060200180831161078957829003601f168201915b5050505050908060020180546107bb90611e68565b80601f01602080910402602001604051908101604052809291908181526020018280546107e790611e68565b80156108345780601f1061080957610100808354040283529160200191610834565b820191906000526020600020905b81548152906001019060200180831161081757829003601f168201915b50505050509080600301805461084990611e68565b80601f016020809104026020016040519081016040528092919081815260200182805461087590611e68565b80156108c25780601f10610897576101008083540402835291602001916108c2565b820191906000526020600020905b8154815290600101906020018083116108a557829003601f168201915b5050505050905084565b60006004600160008473ffffffffffffffffffffffffffffffffffffffff1673ffffffffffffffffffffffffffffffffffffffff16815260200190815260200160002060000160405161091f9190611f31565b908152602001604051809103902060008373ffffffffffffffffffffffffffffffffffffffff1673ffffffffffffffffffffffffffffffffffffffff16815260200190815260200160002060009054906101000a900460ff169050919050565b60058888604051610991929190611d8e565b908152602001604051809103902086866040516109af929190611d8e565b908152602001604051809103902060009054906101000a900460ff1615610a0b576040517f08c379a0000000000000000000000000000000000000000000000000000000008152600401610a0290611f94565b60405180910390fd5b600060028989604051610a1f929190611d8e565b908152602001604051809103902060003373ffffffffffffffffffffffffffffffffffffffff1673ffffffffffffffffffffffffffffffffffffffff16815260200190815260200160002090506000610b48826000018054610a8090611e68565b80601f0160208091040260200160405190810160405280929190818152602001828054610aac90611e68565b8015610af95780601f10610ace57610100808354040283529160200191610af9565b820191906000526020600020905b815481529060010190602001808311610adc57829003601f168201915b50505050508b8b8080601f016020809104026020016040519081016040528093929190818152602001838380828437600081840152601f19601f8201169050808301925050505050505061102d565b905080610b8a576040517f08c379a0000000000000000000000000000000000000000000000000000000008152600401610b8190612026565b60405180910390fd5b600060405180608001604052808c8c8080601f016020809104026020016040519081016040528093929190818152602001838380828437600081840152601f19601f82011690508083019250505050505050815260200188888080601f016020809104026020016040519081016040528093929190818152602001838380828437600081840152601f19601f8201169050808301925050505050505081526020018a8a8080601f016020809104026020016040519081016040528093929190818152602001838380828437600081840152601f19601f82011690508083019250505050505050815260200186868080601f016020809104026020016040519081016040528093929190818152602001838380828437600081840152601f19601f8201169050808301925050505050505081525090508060038c8c604051610cd2929190611d8e565b90815260200160405180910390208a8a604051610cf0929190611d8e565b90815260200160405180910390206000820151816000019081610d1391906121e7565b506020820151816001019081610d2991906121e7565b506040820151816002019081610d3f91906121e7565b506060820151816003019081610d5591906121e7565b50905050600160058c8c604051610d6d929190611d8e565b90815260200160405180910390208a8a604051610d8b929190611d8e565b908152602001604051809103902060006101000a81548160ff0219169083151502179055507f83578a73a4c3a7c76663015e244ba32c50fba3d5fbc64a08394a6a5083f6b0598b8b8b8b8b8b604051610de99695949392919061230c565b60405180910390a15050505050505050505050565b600582805160208101820180518482526020830160208501208183528095505050505050818051602081018201805184825260208301602085012081835280955050505050506000915091509054906101000a900460ff1681565b60008054906101000a900473ffffffffffffffffffffffffffffffffffffffff1681565b610e85611589565b6000600160008473ffffffffffffffffffffffffffffffffffffffff1673ffffffffffffffffffffffffffffffffffffffff168152602001908152602001600020905080604051806040016040529081600082018054610ee490611e68565b80601f0160208091040260200160405190810160405280929190818152602001828054610f1090611e68565b8015610f5d5780601f10610f3257610100808354040283529160200191610f5d565b820191906000526020600020905b815481529060010190602001808311610f4057829003601f168201915b505050505081526020016001820160009054906101000a900473ffffffffffffffffffffffffffffffffffffffff1673ffffffffffffffffffffffffffffffffffffffff1673ffffffffffffffffffffffffffffffffffffffff1681525050915050919050565b60008060009054906101000a900473ffffffffffffffffffffffffffffffffffffffff1673ffffffffffffffffffffffffffffffffffffffff168273ffffffffffffffffffffffffffffffffffffffff16036110235760019050611028565b600090505b919050565b600081604051602001611040919061239b565b6040516020818303038152906040528051906020012083604051602001611067919061239b565b6040516020818303038152906040528051906020012014905092915050565b60008054906101000a900473ffffffffffffffffffffffffffffffffffffffff1673ffffffffffffffffffffffffffffffffffffffff163373ffffffffffffffffffffffffffffffffffffffff1614611114576040517f08c379a000000000000000000000000000000000000000000000000000000000815260040161110b90612424565b60405180910390fd5b600160048484604051611128929190611d8e565b908152602001604051809103902060008373ffffffffffffffffffffffffffffffffffffffff1673ffffffffffffffffffffffffffffffffffffffff16815260200190815260200160002060006101000a81548160ff0219169083151502179055506000604051806040016040528085858080601f016020809104026020016040519081016040528093929190818152602001838380828437600081840152601f19601f8201169050808301925050505050505081526020018373ffffffffffffffffffffffffffffffffffffffff1681525090508060028585604051611210929190611d8e565b908152602001604051809103902060008473ffffffffffffffffffffffffffffffffffffffff1673ffffffffffffffffffffffffffffffffffffffff168152602001908152602001600020600082015181600001908161127091906121e7565b5060208201518160010160006101000a81548173ffffffffffffffffffffffffffffffffffffffff021916908373ffffffffffffffffffffffffffffffffffffffff16021790555090505080600160008473ffffffffffffffffffffffffffffffffffffffff1673ffffffffffffffffffffffffffffffffffffffff168152602001908152602001600020600082015181600001908161131091906121e7565b5060208201518160010160006101000a81548173ffffffffffffffffffffffffffffffffffffffff021916908373ffffffffffffffffffffffffffffffffffffffff16021790555090505050505050565b600160205280600052604060002060009150905080600001805461138490611e68565b80601f01602080910402602001604051908101604052809291908181526020018280546113b090611e68565b80156113fd5780601f106113d2576101008083540402835291602001916113fd565b820191906000526020600020905b8154815290600101906020018083116113e057829003601f168201915b5050505050908060010160009054906101000a900473ffffffffffffffffffffffffffffffffffffffff16905082565b6002828051602081018201805184825260208301602085012081835280955050505050506020528060005260406000206000915091505080600001805461147390611e68565b80601f016020809104026020016040519081016040528092919081815260200182805461149f90611e68565b80156114ec5780601f106114c1576101008083540402835291602001916114ec565b820191906000526020600020905b8154815290600101906020018083116114cf57829003601f168201915b5050505050908060010160009054906101000a900473ffffffffffffffffffffffffffffffffffffffff16905082565b6004828051602081018201805184825260208301602085012081835280955050505050506020528060005260406000206000915091509054906101000a900460ff1681565b6040518060800160405280606081526020016060815260200160608152602001606081525090565b604051806040016040528060608152602001600073ffffffffffffffffffffffffffffffffffffffff1681525090565b6000604051905090565b600080fd5b600080fd5b600080fd5b600080fd5b600080fd5b60008083601f8401126115f2576115f16115cd565b5b8235905067ffffffffffffffff81111561160f5761160e6115d2565b5b60208301915083600182028301111561162b5761162a6115d7565b5b9250929050565b6000806000806040858703121561164c5761164b6115c3565b5b600085013567ffffffffffffffff81111561166a576116696115c8565b5b611676878288016115dc565b9450945050602085013567ffffffffffffffff811115611699576116986115c8565b5b6116a5878288016115dc565b925092505092959194509250565b600081519050919050565b600082825260208201905092915050565b60005b838110156116ed5780820151818401526020810190506116d2565b60008484015250505050565b6000601f19601f8301169050919050565b6000611715826116b3565b61171f81856116be565b935061172f8185602086016116cf565b611738816116f9565b840191505092915050565b60006080830160008301518482036000860152611760828261170a565b9150506020830151848203602086015261177a828261170a565b91505060408301518482036040860152611794828261170a565b915050606083015184820360608601526117ae828261170a565b9150508091505092915050565b600060208201905081810360008301526117d58184611743565b905092915050565b600080fd5b7f4e487b7100000000000000000000000000000000000000000000000000000000600052604160045260246000fd5b61181a826116f9565b810181811067ffffffffffffffff82111715611839576118386117e2565b5b80604052505050565b600061184c6115b9565b90506118588282611811565b919050565b600067ffffffffffffffff821115611878576118776117e2565b5b611881826116f9565b9050602081019050919050565b82818337600083830152505050565b60006118b06118ab8461185d565b611842565b9050828152602081018484840111156118cc576118cb6117dd565b5b6118d784828561188e565b509392505050565b600082601f8301126118f4576118f36115cd565b5b813561190484826020860161189d565b91505092915050565b60008060408385031215611924576119236115c3565b5b600083013567ffffffffffffffff811115611942576119416115c8565b5b61194e858286016118df565b925050602083013567ffffffffffffffff81111561196f5761196e6115c8565b5b61197b858286016118df565b9150509250929050565b600082825260208201905092915050565b60006119a1826116b3565b6119ab8185611985565b93506119bb8185602086016116cf565b6119c4816116f9565b840191505092915050565b600060808201905081810360008301526119e98187611996565b905081810360208301526119fd8186611996565b90508181036040830152611a118185611996565b90508181036060830152611a258184611996565b905095945050505050565b600073ffffffffffffffffffffffffffffffffffffffff82169050919050565b6000611a5b82611a30565b9050919050565b611a6b81611a50565b8114611a7657600080fd5b50565b600081359050611a8881611a62565b92915050565b600060208284031215611aa457611aa36115c3565b5b6000611ab284828501611a79565b91505092915050565b60008115159050919050565b611ad081611abb565b82525050565b6000602082019050611aeb6000830184611ac7565b92915050565b6000806000806000806000806080898b031215611b1157611b106115c3565b5b600089013567ffffffffffffffff811115611b2f57611b2e6115c8565b5b611b3b8b828c016115dc565b9850985050602089013567ffffffffffffffff811115611b5e57611b5d6115c8565b5b611b6a8b828c016115dc565b9650965050604089013567ffffffffffffffff811115611b8d57611b8c6115c8565b5b611b998b828c016115dc565b9450945050606089013567ffffffffffffffff811115611bbc57611bbb6115c8565b5b611bc88b828c016115dc565b92509250509295985092959890939650565b611be381611a50565b82525050565b6000602082019050611bfe6000830184611bda565b92915050565b611c0d81611a50565b82525050565b60006040830160008301518482036000860152611c30828261170a565b9150506020830151611c456020860182611c04565b508091505092915050565b60006020820190508181036000830152611c6a8184611c13565b905092915050565b600080600060408486031215611c8b57611c8a6115c3565b5b600084013567ffffffffffffffff811115611ca957611ca86115c8565b5b611cb5868287016115dc565b93509350506020611cc886828701611a79565b9150509250925092565b60006040820190508181036000830152611cec8185611996565b9050611cfb6020830184611bda565b9392505050565b60008060408385031215611d1957611d186115c3565b5b600083013567ffffffffffffffff811115611d3757611d366115c8565b5b611d43858286016118df565b9250506020611d5485828601611a79565b9150509250929050565b600081905092915050565b6000611d758385611d5e565b9350611d8283858461188e565b82840190509392505050565b6000611d9b828486611d69565b91508190509392505050565b7f4365727469666963617465207769746820656e74657265642063726564656e7460008201527f69616c73206973206e6f742070726573656e7400000000000000000000000000602082015250565b6000611e03603383611985565b9150611e0e82611da7565b604082019050919050565b60006020820190508181036000830152611e3281611df6565b9050919050565b7f4e487b7100000000000000000000000000000000000000000000000000000000600052602260045260246000fd5b60006002820490506001821680611e8057607f821691505b602082108103611e9357611e92611e39565b5b50919050565b60008190508160005260206000209050919050565b60008154611ebb81611e68565b611ec58186611d5e565b94506001821660008114611ee05760018114611ef557611f28565b60ff1983168652811515820286019350611f28565b611efe85611e99565b60005b83811015611f2057815481890152600182019150602081019050611f01565b838801955050505b50505092915050565b6000611f3d8284611eae565b915081905092915050565b7f53747564656e7420616c72656164792061646465640000000000000000000000600082015250565b6000611f7e601583611985565b9150611f8982611f48565b602082019050919050565b60006020820190508181036000830152611fad81611f71565b9050919050565b7f506c6561736520616464206f6e6c79206365727469666963617465732074686160008201527f742062656c6f6e6720746f20796f757220756e76696572736974790000000000602082015250565b6000612010603b83611985565b915061201b82611fb4565b604082019050919050565b6000602082019050818103600083015261203f81612003565b9050919050565b60006020601f8301049050919050565b600082821b905092915050565b6000600883026120937fffffffffffffffffffffffffffffffffffffffffffffffffffffffffffffffff82612056565b61209d8683612056565b95508019841693508086168417925050509392505050565b6000819050919050565b6000819050919050565b60006120e46120df6120da846120b5565b6120bf565b6120b5565b9050919050565b6000819050919050565b6120fe836120c9565b61211261210a826120eb565b848454612063565b825550505050565b600090565b61212761211a565b6121328184846120f5565b505050565b5b818110156121565761214b60008261211f565b600181019050612138565b5050565b601f82111561219b5761216c81611e99565b61217584612046565b81016020851015612184578190505b61219861219085612046565b830182612137565b50505b505050565b600082821c905092915050565b60006121be600019846008026121a0565b1980831691505092915050565b60006121d783836121ad565b9150826002028217905092915050565b6121f0826116b3565b67ffffffffffffffff811115612209576122086117e2565b5b6122138254611e68565b61221e82828561215a565b600060209050601f831160018114612251576000841561223f578287015190505b61224985826121cb565b8655506122b1565b601f19841661225f86611e99565b60005b8281101561228757848901518255600182019150602085019450602081019050612262565b868310156122a457848901516122a0601f8916826121ad565b8355505b6001600288020188555050505b505050505050565b60006122c58385611985565b93506122d283858461188e565b6122db836116f9565b840190509392505050565b7f43657274696669636174652055706c6f616465642073756363657366756c6c79815250565b6000608082019050818103600083015261232781888a6122b9565b9050818103602083015261233c8186886122b9565b905081810360408301526123518184866122b9565b905061235f606083016122e6565b979650505050505050565b6000612375826116b3565b61237f8185611d5e565b935061238f8185602086016116cf565b80840191505092915050565b60006123a7828461236a565b915081905092915050565b7f4f6e6c79206f776e65722063616e20616363657373207468697320666561747560008201527f7265000000000000000000000000000000000000000000000000000000000000602082015250565b600061240e602283611985565b9150612419826123b2565b604082019050919050565b6000602082019050818103600083015261243d81612401565b905091905056fea2646970667358221220b154d64c8e202221bc177578b9050934d8062e5864836ddfe70494e3b5d00a5664736f6c63430008130033",
  "linkReferences": {},
  "deployedLinkReferences": {}
}