{
  "_format": "hh-sol-artifact-1",
  "contractName": "CertificateVerification",
  "sourceName": "contracts/CertificateVerification.sol",
  "abi": [
    {
      "inputs": [],
      "stateMutability": "nonpayable",
      "type": "constructor"
    },
    {
      "anonymous": false,
      "inputs": [
        {
          "indexed": false,
          "internalType": "string",
          "name": "universityName",
          "type": "string"
        },
        {
          "indexed": false,
          "internalType": "string",
          "name": "registrationNumber",
          "type": "string"
        },
        {
          "indexed": false,
          "internalType": "string",
          "name": "hash",
          "type": "string"
        },
        {
          "indexed": false,
          "internalType": "bytes32",
          "name": "message",
          "type": "bytes32"
        }
      ],
      "name": "CertificateAdded",
      "type": "event"
    },
    {
      "anonymous": false,
      "inputs": [
        {
          "indexed": false,
          "internalType": "bytes32",
          "name": "message",
          "type": "bytes32"
        }
      ],
      "name": "CertificateFetched",
      "type": "event"
    },
    {
      "inputs": [
        {
          "internalType": "address",
          "name": "_address",
          "type": "address"
        }
      ],
      "name": "_isOwner",
      "outputs": [
        {
          "internalType": "bool",
          "name": "",
          "type": "bool"
        }
      ],
      "stateMutability": "view",
      "type": "function"
    },
    {
      "inputs": [
        {
          "internalType": "string",
          "name": "_universityName",
          "type": "string"
        },
        {
          "internalType": "string",
          "name": "_registrationNumber",
          "type": "string"
        },
        {
          "internalType": "string",
          "name": "_hash",
          "type": "string"
        },
        {
          "internalType": "string",
          "name": "_photoHash",
          "type": "string"
        }
      ],
      "name": "addCertificate",
      "outputs": [],
      "stateMutability": "nonpayable",
      "type": "function"
    },
    {
      "inputs": [
        {
          "internalType": "string",
          "name": "_universityName",
          "type": "string"
        },
        {
          "internalType": "address",
          "name": "_address",
          "type": "address"
        }
      ],
      "name": "assignRegistrar",
      "outputs": [],
      "stateMutability": "nonpayable",
      "type": "function"
    },
    {
      "inputs": [
        {
          "internalType": "string",
          "name": "",
          "type": "string"
        },
        {
          "internalType": "string",
          "name": "",
          "type": "string"
        }
      ],
      "name": "certificate",
      "outputs": [
        {
          "internalType": "string",
          "name": "universityName",
          "type": "string"
        },
        {
          "internalType": "string",
          "name": "certificateHash",
          "type": "string"
        },
        {
          "internalType": "string",
          "name": "registrationNumber",
          "type": "string"
        },
        {
          "internalType": "string",
          "name": "photoHash",
          "type": "string"
        }
      ],
      "stateMutability": "view",
      "type": "function"
    },
    {
      "inputs": [
        {
          "internalType": "string",
          "name": "a",
          "type": "string"
        },
        {
          "internalType": "string",
          "name": "b",
          "type": "string"
        }
      ],
      "name": "compareStrings",
      "outputs": [
        {
          "internalType": "bool",
          "name": "",
          "type": "bool"
        }
      ],
      "stateMutability": "pure",
      "type": "function"
    },
    {
      "inputs": [
        {
          "internalType": "string",
          "name": "_universityName",
          "type": "string"
        },
        {
          "internalType": "string",
          "name": "_registrationNumber",
          "type": "string"
        }
      ],
      "name": "getCertificate",
      "outputs": [
        {
          "components": [
            {
              "internalType": "string",
              "name": "universityName",
              "type": "string"
            },
            {
              "internalType": "string",
              "name": "certificateHash",
              "type": "string"
            },
            {
              "internalType": "string",
              "name": "registrationNumber",
              "type": "string"
            },
            {
              "internalType": "string",
              "name": "photoHash",
              "type": "string"
            }
          ],
          "internalType": "struct CertificateVerification.Certificate",
          "name": "",
          "type": "tuple"
        }
      ],
      "stateMutability": "nonpayable",
      "type": "function"
    },
    {
      "inputs": [
        {
          "internalType": "address",
          "name": "_address",
          "type": "address"
        }
      ],
      "name": "getRegistrar",
      "outputs": [
        {
          "components": [
            {
              "internalType": "string",
              "name": "universityName",
              "type": "string"
            },
            {
              "internalType": "address",
              "name": "registrarAddress",
              "type": "address"
            }
          ],
          "internalType": "struct CertificateVerification.Registrar",
          "name": "",
          "type": "tuple"
        }
      ],
      "stateMutability": "view",
      "type": "function"
    },
    {
      "inputs": [
        {
          "internalType": "string",
          "name": "",
          "type": "string"
        },
        {
          "internalType": "string",
          "name": "",
          "type": "string"
        }
      ],
      "name": "isAdded",
      "outputs": [
        {
          "internalType": "bool",
          "name": "",
          "type": "bool"
        }
      ],
      "stateMutability": "view",
      "type": "function"
    },
    {
      "inputs": [
        {
          "internalType": "address",
          "name": "_address",
          "type": "address"
        }
      ],
      "name": "isAddressRegistrar",
      "outputs": [
        {
          "internalType": "bool",
          "name": "",
          "type": "bool"
        }
      ],
      "stateMutability": "view",
      "type": "function"
    },
    {
      "inputs": [
        {
          "internalType": "string",
          "name": "",
          "type": "string"
        },
        {
          "internalType": "address",
          "name": "",
          "type": "address"
        }
      ],
      "name": "isRegistrar",
      "outputs": [
        {
          "internalType": "bool",
          "name": "",
          "type": "bool"
        }
      ],
      "stateMutability": "view",
      "type": "function"
    },
    {
      "inputs": [],
      "name": "owner",
      "outputs": [
        {
          "internalType": "address",
          "name": "",
          "type": "address"
        }
      ],
      "stateMutability": "view",
      "type": "function"
    },
    {
      "inputs": [
        {
          "internalType": "address",
          "name": "",
          "type": "address"
        }
      ],
      "name": "registrar",
      "outputs": [
        {
          "internalType": "string",
          "name": "universityName",
          "type": "string"
        },
        {
          "internalType": "address",
          "name": "registrarAddress",
          "type": "address"
        }
      ],
      "stateMutability": "view",
      "type": "function"
    },
    {
      "inputs": [
        {
          "internalType": "string",
          "name": "",
          "type": "string"
        },
        {
          "internalType": "address",
          "name": "",
          "type": "address"
        }
      ],
      "name": "registrars",
      "outputs": [
        {
          "internalType": "string",
          "name": "universityName",
          "type": "string"
        },
        {
          "internalType": "address",
          "name": "registrarAddress",
          "type": "address"
        }
      ],
      "stateMutability": "view",
      "type": "function"
    }
  ],
  "bytecode": "0x608060405234801561001057600080fd5b50336000806101000a81548173ffffffffffffffffffffffffffffffffffffffff021916908373ffffffffffffffffffffffffffffffffffffffff1602179055506124ee806100606000396000f3fe608060405234801561001057600080fd5b50600436106100cf5760003560e01c80639e3e91191161008c578063d1516c6f11610066578063d1516c6f14610261578063e397cb9e1461027d578063f6356114146102ae578063fe222dc0146102df576100cf565b80639e3e9119146101d1578063b71fbe4b14610201578063bed34bba14610231576100cf565b80630dd2e876146100d45780633650fe02146101045780636c16275a1461013757806372c44638146101675780637a7f57bc146101835780638da5cb5b146101b3575b600080fd5b6100ee60048036038101906100e99190611667565b61030f565b6040516100fb91906117f0565b60405180910390f35b61011e60048036038101906101199190611942565b610678565b60405161012e9493929190611a04565b60405180910390f35b610151600480360381019061014c9190611ac3565b610901565b60405161015e9190611b0b565b60405180910390f35b610181600480360381019061017c9190611b26565b6109b4565b005b61019d60048036038101906101989190611942565b610e33565b6040516101aa9190611b0b565b60405180910390f35b6101bb610e8e565b6040516101c89190611c1e565b60405180910390f35b6101eb60048036038101906101e69190611ac3565b610eb2565b6040516101f89190611c85565b60405180910390f35b61021b60048036038101906102169190611ac3565b610ff9565b6040516102289190611b0b565b60405180910390f35b61024b60048036038101906102469190611942565b611062565b6040516102589190611b0b565b60405180910390f35b61027b60048036038101906102769190611ca7565b6110bb565b005b61029760048036038101906102929190611ac3565b611396565b6040516102a5929190611d07565b60405180910390f35b6102c860048036038101906102c39190611d37565b611462565b6040516102d6929190611d07565b60405180910390f35b6102f960048036038101906102f49190611d37565b611551565b6040516103069190611b0b565b60405180910390f35b610317611596565b60058585604051610329929190611dc3565b90815260200160405180910390208383604051610347929190611dc3565b908152602001604051809103902060009054906101000a900460ff166103a2576040517f08c379a000000000000000000000000000000000000000000000000000000000815260040161039990611e4e565b60405180910390fd5b6000600386866040516103b6929190611dc3565b908152602001604051809103902084846040516103d4929190611dc3565b908152602001604051809103902090507f905c612569d18db7f411ff4f490271d41741a4d02c9e507292a17ded9289bcd260405161041190611e94565b60405180910390a18060405180608001604052908160008201805461043590611edc565b80601f016020809104026020016040519081016040528092919081815260200182805461046190611edc565b80156104ae5780601f10610483576101008083540402835291602001916104ae565b820191906000526020600020905b81548152906001019060200180831161049157829003601f168201915b505050505081526020016001820180546104c790611edc565b80601f01602080910402602001604051908101604052809291908181526020018280546104f390611edc565b80156105405780601f1061051557610100808354040283529160200191610540565b820191906000526020600020905b81548152906001019060200180831161052357829003601f168201915b5050505050815260200160028201805461055990611edc565b80601f016020809104026020016040519081016040528092919081815260200182805461058590611edc565b80156105d25780601f106105a7576101008083540402835291602001916105d2565b820191906000526020600020905b8154815290600101906020018083116105b557829003601f168201915b505050505081526020016003820180546105eb90611edc565b80601f016020809104026020016040519081016040528092919081815260200182805461061790611edc565b80156106645780601f1061063957610100808354040283529160200191610664565b820191906000526020600020905b81548152906001019060200180831161064757829003601f168201915b505050505081525050915050949350505050565b60038280516020810182018051848252602083016020850120818352809550505050505081805160208101820180518482526020830160208501208183528095505050505050600091509150508060000180546106d490611edc565b80601f016020809104026020016040519081016040528092919081815260200182805461070090611edc565b801561074d5780601f106107225761010080835404028352916020019161074d565b820191906000526020600020905b81548152906001019060200180831161073057829003601f168201915b50505050509080600101805461076290611edc565b80601f016020809104026020016040519081016040528092919081815260200182805461078e90611edc565b80156107db5780601f106107b0576101008083540402835291602001916107db565b820191906000526020600020905b8154815290600101906020018083116107be57829003601f168201915b5050505050908060020180546107f090611edc565b80601f016020809104026020016040519081016040528092919081815260200182805461081c90611edc565b80156108695780601f1061083e57610100808354040283529160200191610869565b820191906000526020600020905b81548152906001019060200180831161084c57829003601f168201915b50505050509080600301805461087e90611edc565b80601f01602080910402602001604051908101604052809291908181526020018280546108aa90611edc565b80156108f75780601f106108cc576101008083540402835291602001916108f7565b820191906000526020600020905b8154815290600101906020018083116108da57829003601f168201915b5050505050905084565b60006004600160008473ffffffffffffffffffffffffffffffffffffffff1673ffffffffffffffffffffffffffffffffffffffff1681526020019081526020016000206000016040516109549190611fa5565b908152602001604051809103902060008373ffffffffffffffffffffffffffffffffffffffff1673ffffffffffffffffffffffffffffffffffffffff16815260200190815260200160002060009054906101000a900460ff169050919050565b600588886040516109c6929190611dc3565b908152602001604051809103902086866040516109e4929190611dc3565b908152602001604051809103902060009054906101000a900460ff1615610a40576040517f08c379a0000000000000000000000000000000000000000000000000000000008152600401610a3790612008565b60405180910390fd5b600060028989604051610a54929190611dc3565b908152602001604051809103902060003373ffffffffffffffffffffffffffffffffffffffff1673ffffffffffffffffffffffffffffffffffffffff16815260200190815260200160002090506000610b7d826000018054610ab590611edc565b80601f0160208091040260200160405190810160405280929190818152602001828054610ae190611edc565b8015610b2e5780601f10610b0357610100808354040283529160200191610b2e565b820191906000526020600020905b815481529060010190602001808311610b1157829003601f168201915b50505050508b8b8080601f016020809104026020016040519081016040528093929190818152602001838380828437600081840152601f19601f82011690508083019250505050505050611062565b905080610bbf576040517f08c379a0000000000000000000000000000000000000000000000000000000008152600401610bb69061209a565b60405180910390fd5b600060405180608001604052808c8c8080601f016020809104026020016040519081016040528093929190818152602001838380828437600081840152601f19601f82011690508083019250505050505050815260200188888080601f016020809104026020016040519081016040528093929190818152602001838380828437600081840152601f19601f8201169050808301925050505050505081526020018a8a8080601f016020809104026020016040519081016040528093929190818152602001838380828437600081840152601f19601f82011690508083019250505050505050815260200186868080601f016020809104026020016040519081016040528093929190818152602001838380828437600081840152601f19601f8201169050808301925050505050505081525090508060038c8c604051610d07929190611dc3565b90815260200160405180910390208a8a604051610d25929190611dc3565b90815260200160405180910390206000820151816000019081610d48919061225b565b506020820151816001019081610d5e919061225b565b506040820151816002019081610d74919061225b565b506060820151816003019081610d8a919061225b565b50905050600160058c8c604051610da2929190611dc3565b90815260200160405180910390208a8a604051610dc0929190611dc3565b908152602001604051809103902060006101000a81548160ff0219169083151502179055507f83578a73a4c3a7c76663015e244ba32c50fba3d5fbc64a08394a6a5083f6b0598b8b8b8b8b8b604051610e1e96959493929190612380565b60405180910390a15050505050505050505050565b600582805160208101820180518482526020830160208501208183528095505050505050818051602081018201805184825260208301602085012081835280955050505050506000915091509054906101000a900460ff1681565b60008054906101000a900473ffffffffffffffffffffffffffffffffffffffff1681565b610eba6115be565b6000600160008473ffffffffffffffffffffffffffffffffffffffff1673ffffffffffffffffffffffffffffffffffffffff168152602001908152602001600020905080604051806040016040529081600082018054610f1990611edc565b80601f0160208091040260200160405190810160405280929190818152602001828054610f4590611edc565b8015610f925780601f10610f6757610100808354040283529160200191610f92565b820191906000526020600020905b815481529060010190602001808311610f7557829003601f168201915b505050505081526020016001820160009054906101000a900473ffffffffffffffffffffffffffffffffffffffff1673ffffffffffffffffffffffffffffffffffffffff1673ffffffffffffffffffffffffffffffffffffffff1681525050915050919050565b60008060009054906101000a900473ffffffffffffffffffffffffffffffffffffffff1673ffffffffffffffffffffffffffffffffffffffff168273ffffffffffffffffffffffffffffffffffffffff1603611058576001905061105d565b600090505b919050565b600081604051602001611075919061240f565b604051602081830303815290604052805190602001208360405160200161109c919061240f565b6040516020818303038152906040528051906020012014905092915050565b60008054906101000a900473ffffffffffffffffffffffffffffffffffffffff1673ffffffffffffffffffffffffffffffffffffffff163373ffffffffffffffffffffffffffffffffffffffff1614611149576040517f08c379a000000000000000000000000000000000000000000000000000000000815260040161114090612498565b60405180910390fd5b60016004848460405161115d929190611dc3565b908152602001604051809103902060008373ffffffffffffffffffffffffffffffffffffffff1673ffffffffffffffffffffffffffffffffffffffff16815260200190815260200160002060006101000a81548160ff0219169083151502179055506000604051806040016040528085858080601f016020809104026020016040519081016040528093929190818152602001838380828437600081840152601f19601f8201169050808301925050505050505081526020018373ffffffffffffffffffffffffffffffffffffffff1681525090508060028585604051611245929190611dc3565b908152602001604051809103902060008473ffffffffffffffffffffffffffffffffffffffff1673ffffffffffffffffffffffffffffffffffffffff16815260200190815260200160002060008201518160000190816112a5919061225b565b5060208201518160010160006101000a81548173ffffffffffffffffffffffffffffffffffffffff021916908373ffffffffffffffffffffffffffffffffffffffff16021790555090505080600160008473ffffffffffffffffffffffffffffffffffffffff1673ffffffffffffffffffffffffffffffffffffffff1681526020019081526020016000206000820151816000019081611345919061225b565b5060208201518160010160006101000a81548173ffffffffffffffffffffffffffffffffffffffff021916908373ffffffffffffffffffffffffffffffffffffffff16021790555090505050505050565b60016020528060005260406000206000915090508060000180546113b990611edc565b80601f01602080910402602001604051908101604052809291908181526020018280546113e590611edc565b80156114325780601f1061140757610100808354040283529160200191611432565b820191906000526020600020905b81548152906001019060200180831161141557829003601f168201915b5050505050908060010160009054906101000a900473ffffffffffffffffffffffffffffffffffffffff16905082565b600282805160208101820180518482526020830160208501208183528095505050505050602052806000526040600020600091509150508060000180546114a890611edc565b80601f01602080910402602001604051908101604052809291908181526020018280546114d490611edc565b80156115215780601f106114f657610100808354040283529160200191611521565b820191906000526020600020905b81548152906001019060200180831161150457829003601f168201915b5050505050908060010160009054906101000a900473ffffffffffffffffffffffffffffffffffffffff16905082565b6004828051602081018201805184825260208301602085012081835280955050505050506020528060005260406000206000915091509054906101000a900460ff1681565b6040518060800160405280606081526020016060815260200160608152602001606081525090565b604051806040016040528060608152602001600073ffffffffffffffffffffffffffffffffffffffff1681525090565b6000604051905090565b600080fd5b600080fd5b600080fd5b600080fd5b600080fd5b60008083601f84011261162757611626611602565b5b8235905067ffffffffffffffff81111561164457611643611607565b5b6020830191508360018202830111156116605761165f61160c565b5b9250929050565b60008060008060408587031215611681576116806115f8565b5b600085013567ffffffffffffffff81111561169f5761169e6115fd565b5b6116ab87828801611611565b9450945050602085013567ffffffffffffffff8111156116ce576116cd6115fd565b5b6116da87828801611611565b925092505092959194509250565b600081519050919050565b600082825260208201905092915050565b60005b83811015611722578082015181840152602081019050611707565b60008484015250505050565b6000601f19601f8301169050919050565b600061174a826116e8565b61175481856116f3565b9350611764818560208601611704565b61176d8161172e565b840191505092915050565b60006080830160008301518482036000860152611795828261173f565b915050602083015184820360208601526117af828261173f565b915050604083015184820360408601526117c9828261173f565b915050606083015184820360608601526117e3828261173f565b9150508091505092915050565b6000602082019050818103600083015261180a8184611778565b905092915050565b600080fd5b7f4e487b7100000000000000000000000000000000000000000000000000000000600052604160045260246000fd5b61184f8261172e565b810181811067ffffffffffffffff8211171561186e5761186d611817565b5b80604052505050565b60006118816115ee565b905061188d8282611846565b919050565b600067ffffffffffffffff8211156118ad576118ac611817565b5b6118b68261172e565b9050602081019050919050565b82818337600083830152505050565b60006118e56118e084611892565b611877565b90508281526020810184848401111561190157611900611812565b5b61190c8482856118c3565b509392505050565b600082601f83011261192957611928611602565b5b81356119398482602086016118d2565b91505092915050565b60008060408385031215611959576119586115f8565b5b600083013567ffffffffffffffff811115611977576119766115fd565b5b61198385828601611914565b925050602083013567ffffffffffffffff8111156119a4576119a36115fd565b5b6119b085828601611914565b9150509250929050565b600082825260208201905092915050565b60006119d6826116e8565b6119e081856119ba565b93506119f0818560208601611704565b6119f98161172e565b840191505092915050565b60006080820190508181036000830152611a1e81876119cb565b90508181036020830152611a3281866119cb565b90508181036040830152611a4681856119cb565b90508181036060830152611a5a81846119cb565b905095945050505050565b600073ffffffffffffffffffffffffffffffffffffffff82169050919050565b6000611a9082611a65565b9050919050565b611aa081611a85565b8114611aab57600080fd5b50565b600081359050611abd81611a97565b92915050565b600060208284031215611ad957611ad86115f8565b5b6000611ae784828501611aae565b91505092915050565b60008115159050919050565b611b0581611af0565b82525050565b6000602082019050611b206000830184611afc565b92915050565b6000806000806000806000806080898b031215611b4657611b456115f8565b5b600089013567ffffffffffffffff811115611b6457611b636115fd565b5b611b708b828c01611611565b9850985050602089013567ffffffffffffffff811115611b9357611b926115fd565b5b611b9f8b828c01611611565b9650965050604089013567ffffffffffffffff811115611bc257611bc16115fd565b5b611bce8b828c01611611565b9450945050606089013567ffffffffffffffff811115611bf157611bf06115fd565b5b611bfd8b828c01611611565b92509250509295985092959890939650565b611c1881611a85565b82525050565b6000602082019050611c336000830184611c0f565b92915050565b611c4281611a85565b82525050565b60006040830160008301518482036000860152611c65828261173f565b9150506020830151611c7a6020860182611c39565b508091505092915050565b60006020820190508181036000830152611c9f8184611c48565b905092915050565b600080600060408486031215611cc057611cbf6115f8565b5b600084013567ffffffffffffffff811115611cde57611cdd6115fd565b5b611cea86828701611611565b93509350506020611cfd86828701611aae565b9150509250925092565b60006040820190508181036000830152611d2181856119cb565b9050611d306020830184611c0f565b9392505050565b60008060408385031215611d4e57611d4d6115f8565b5b600083013567ffffffffffffffff811115611d6c57611d6b6115fd565b5b611d7885828601611914565b9250506020611d8985828601611aae565b9150509250929050565b600081905092915050565b6000611daa8385611d93565b9350611db78385846118c3565b82840190509392505050565b6000611dd0828486611d9e565b91508190509392505050565b7f4365727469666963617465207769746820656e74657265642063726564656e7460008201527f69616c73206973206e6f742070726573656e7400000000000000000000000000602082015250565b6000611e386033836119ba565b9150611e4382611ddc565b604082019050919050565b60006020820190508181036000830152611e6781611e2b565b9050919050565b7f4365727469666963617465206665746368656400000000000000000000000000815250565b6000602082019050611ea860008301611e6e565b919050565b7f4e487b7100000000000000000000000000000000000000000000000000000000600052602260045260246000fd5b60006002820490506001821680611ef457607f821691505b602082108103611f0757611f06611ead565b5b50919050565b60008190508160005260206000209050919050565b60008154611f2f81611edc565b611f398186611d93565b94506001821660008114611f545760018114611f6957611f9c565b60ff1983168652811515820286019350611f9c565b611f7285611f0d565b60005b83811015611f9457815481890152600182019150602081019050611f75565b838801955050505b50505092915050565b6000611fb18284611f22565b915081905092915050565b7f53747564656e7420616c72656164792061646465640000000000000000000000600082015250565b6000611ff26015836119ba565b9150611ffd82611fbc565b602082019050919050565b6000602082019050818103600083015261202181611fe5565b9050919050565b7f506c6561736520616464206f6e6c79206365727469666963617465732074686160008201527f742062656c6f6e6720746f20796f757220756e76696572736974790000000000602082015250565b6000612084603b836119ba565b915061208f82612028565b604082019050919050565b600060208201905081810360008301526120b381612077565b9050919050565b60006020601f8301049050919050565b600082821b905092915050565b6000600883026121077fffffffffffffffffffffffffffffffffffffffffffffffffffffffffffffffff826120ca565b61211186836120ca565b95508019841693508086168417925050509392505050565b6000819050919050565b6000819050919050565b600061215861215361214e84612129565b612133565b612129565b9050919050565b6000819050919050565b6121728361213d565b61218661217e8261215f565b8484546120d7565b825550505050565b600090565b61219b61218e565b6121a6818484612169565b505050565b5b818110156121ca576121bf600082612193565b6001810190506121ac565b5050565b601f82111561220f576121e081611f0d565b6121e9846120ba565b810160208510156121f8578190505b61220c612204856120ba565b8301826121ab565b50505b505050565b600082821c905092915050565b600061223260001984600802612214565b1980831691505092915050565b600061224b8383612221565b9150826002028217905092915050565b612264826116e8565b67ffffffffffffffff81111561227d5761227c611817565b5b6122878254611edc565b6122928282856121ce565b600060209050601f8311600181146122c557600084156122b3578287015190505b6122bd858261223f565b865550612325565b601f1984166122d386611f0d565b60005b828110156122fb578489015182556001820191506020850194506020810190506122d6565b868310156123185784890151612314601f891682612221565b8355505b6001600288020188555050505b505050505050565b600061233983856119ba565b93506123468385846118c3565b61234f8361172e565b840190509392505050565b7f43657274696669636174652055706c6f616465642073756363657366756c6c79815250565b6000608082019050818103600083015261239b81888a61232d565b905081810360208301526123b081868861232d565b905081810360408301526123c581848661232d565b90506123d36060830161235a565b979650505050505050565b60006123e9826116e8565b6123f38185611d93565b9350612403818560208601611704565b80840191505092915050565b600061241b82846123de565b915081905092915050565b7f4f6e6c79206f776e65722063616e20616363657373207468697320666561747560008201527f7265000000000000000000000000000000000000000000000000000000000000602082015250565b60006124826022836119ba565b915061248d82612426565b604082019050919050565b600060208201905081810360008301526124b181612475565b905091905056fea26469706673582212205cf78989eaf9da544bc98474ba3bd5f8ba444f17dfb3b506c878205219dc0e7364736f6c63430008130033",
  "linkReferences": {},
  "deployedLinkReferences": {}
}