{
  "_format": "hh-sol-artifact-1",
  "contractName": "CertificateVerification",
  "sourceName": "contracts/CertificateVerification.sol",
  "abi": [
    {
      "inputs": [],
      "stateMutability": "nonpayable",
      "type": "constructor"
    },
    {
      "anonymous": false,
      "inputs": [
        {
          "indexed": false,
          "internalType": "string",
          "name": "universityName",
          "type": "string"
        },
        {
          "indexed": false,
          "internalType": "string",
          "name": "registrationNumber",
          "type": "string"
        },
        {
          "indexed": false,
          "internalType": "string",
          "name": "hash",
          "type": "string"
        },
        {
          "indexed": false,
          "internalType": "bytes32",
          "name": "message",
          "type": "bytes32"
        }
      ],
      "name": "CertificateAdded",
      "type": "event"
    },
    {
      "anonymous": false,
      "inputs": [
        {
          "indexed": false,
          "internalType": "bytes32",
          "name": "message",
          "type": "bytes32"
        }
      ],
      "name": "CertificateFetched",
      "type": "event"
    },
    {
      "inputs": [
        {
          "internalType": "address",
          "name": "_address",
          "type": "address"
        }
      ],
      "name": "_isOwner",
      "outputs": [
        {
          "internalType": "bool",
          "name": "",
          "type": "bool"
        }
      ],
      "stateMutability": "view",
      "type": "function"
    },
    {
      "inputs": [
        {
          "internalType": "string",
          "name": "_universityName",
          "type": "string"
        },
        {
          "internalType": "string",
          "name": "_registrationNumber",
          "type": "string"
        },
        {
          "internalType": "string",
          "name": "_hash",
          "type": "string"
        }
      ],
      "name": "addCertificate",
      "outputs": [],
      "stateMutability": "nonpayable",
      "type": "function"
    },
    {
      "inputs": [
        {
          "internalType": "string",
          "name": "_universityName",
          "type": "string"
        },
        {
          "internalType": "address",
          "name": "_address",
          "type": "address"
        }
      ],
      "name": "assignRegistrar",
      "outputs": [],
      "stateMutability": "nonpayable",
      "type": "function"
    },
    {
      "inputs": [
        {
          "internalType": "string",
          "name": "",
          "type": "string"
        },
        {
          "internalType": "string",
          "name": "",
          "type": "string"
        }
      ],
      "name": "certificate",
      "outputs": [
        {
          "internalType": "string",
          "name": "universityName",
          "type": "string"
        },
        {
          "internalType": "string",
          "name": "hash",
          "type": "string"
        },
        {
          "internalType": "string",
          "name": "registrationNumber",
          "type": "string"
        }
      ],
      "stateMutability": "view",
      "type": "function"
    },
    {
      "inputs": [
        {
          "internalType": "string",
          "name": "a",
          "type": "string"
        },
        {
          "internalType": "string",
          "name": "b",
          "type": "string"
        }
      ],
      "name": "compareStrings",
      "outputs": [
        {
          "internalType": "bool",
          "name": "",
          "type": "bool"
        }
      ],
      "stateMutability": "pure",
      "type": "function"
    },
    {
      "inputs": [
        {
          "internalType": "string",
          "name": "_universityName",
          "type": "string"
        },
        {
          "internalType": "string",
          "name": "_registrationNumber",
          "type": "string"
        }
      ],
      "name": "getCertificate",
      "outputs": [
        {
          "components": [
            {
              "internalType": "string",
              "name": "universityName",
              "type": "string"
            },
            {
              "internalType": "string",
              "name": "hash",
              "type": "string"
            },
            {
              "internalType": "string",
              "name": "registrationNumber",
              "type": "string"
            }
          ],
          "internalType": "struct CertificateVerification.Certificate",
          "name": "",
          "type": "tuple"
        }
      ],
      "stateMutability": "view",
      "type": "function"
    },
    {
      "inputs": [
        {
          "internalType": "address",
          "name": "_address",
          "type": "address"
        }
      ],
      "name": "getRegistrar",
      "outputs": [
        {
          "components": [
            {
              "internalType": "string",
              "name": "universityName",
              "type": "string"
            },
            {
              "internalType": "address",
              "name": "registrarAddress",
              "type": "address"
            }
          ],
          "internalType": "struct CertificateVerification.Registrar",
          "name": "",
          "type": "tuple"
        }
      ],
      "stateMutability": "view",
      "type": "function"
    },
    {
      "inputs": [
        {
          "internalType": "string",
          "name": "",
          "type": "string"
        },
        {
          "internalType": "string",
          "name": "",
          "type": "string"
        }
      ],
      "name": "isAdded",
      "outputs": [
        {
          "internalType": "bool",
          "name": "",
          "type": "bool"
        }
      ],
      "stateMutability": "view",
      "type": "function"
    },
    {
      "inputs": [
        {
          "internalType": "address",
          "name": "_address",
          "type": "address"
        }
      ],
      "name": "isAddressRegistrar",
      "outputs": [
        {
          "internalType": "bool",
          "name": "",
          "type": "bool"
        }
      ],
      "stateMutability": "view",
      "type": "function"
    },
    {
      "inputs": [
        {
          "internalType": "string",
          "name": "",
          "type": "string"
        },
        {
          "internalType": "address",
          "name": "",
          "type": "address"
        }
      ],
      "name": "isRegistrar",
      "outputs": [
        {
          "internalType": "bool",
          "name": "",
          "type": "bool"
        }
      ],
      "stateMutability": "view",
      "type": "function"
    },
    {
      "inputs": [],
      "name": "owner",
      "outputs": [
        {
          "internalType": "address",
          "name": "",
          "type": "address"
        }
      ],
      "stateMutability": "view",
      "type": "function"
    },
    {
      "inputs": [
        {
          "internalType": "address",
          "name": "",
          "type": "address"
        }
      ],
      "name": "registrar",
      "outputs": [
        {
          "internalType": "string",
          "name": "universityName",
          "type": "string"
        },
        {
          "internalType": "address",
          "name": "registrarAddress",
          "type": "address"
        }
      ],
      "stateMutability": "view",
      "type": "function"
    },
    {
      "inputs": [
        {
          "internalType": "string",
          "name": "",
          "type": "string"
        },
        {
          "internalType": "address",
          "name": "",
          "type": "address"
        }
      ],
      "name": "registrars",
      "outputs": [
        {
          "internalType": "string",
          "name": "universityName",
          "type": "string"
        },
        {
          "internalType": "address",
          "name": "registrarAddress",
          "type": "address"
        }
      ],
      "stateMutability": "view",
      "type": "function"
    }
  ],
  "bytecode": "0x608060405234801561001057600080fd5b50336000806101000a81548173ffffffffffffffffffffffffffffffffffffffff021916908373ffffffffffffffffffffffffffffffffffffffff16021790555061228c806100606000396000f3fe608060405234801561001057600080fd5b50600436106100cf5760003560e01c8063ac9e57601161008c578063d1516c6f11610066578063d1516c6f14610260578063e397cb9e1461027c578063f6356114146102ad578063fe222dc0146102de576100cf565b8063ac9e5760146101e4578063b71fbe4b14610200578063bed34bba14610230576100cf565b80630dd2e876146100d45780633650fe02146101045780636c16275a146101365780637a7f57bc146101665780638da5cb5b146101965780639e3e9119146101b4575b600080fd5b6100ee60048036038101906100e991906114a8565b61030e565b6040516100fb9190611617565b60405180910390f35b61011e60048036038101906101199190611769565b6105b0565b60405161012d9392919061182b565b60405180910390f35b610150600480360381019061014b91906118d5565b6107ab565b60405161015d919061191d565b60405180910390f35b610180600480360381019061017b9190611769565b61085e565b60405161018d919061191d565b60405180910390f35b61019e6108b9565b6040516101ab9190611947565b60405180910390f35b6101ce60048036038101906101c991906118d5565b6108dd565b6040516101db91906119ae565b60405180910390f35b6101fe60048036038101906101f991906119d0565b610a24565b005b61021a600480360381019061021591906118d5565b610e41565b604051610227919061191d565b60405180910390f35b61024a60048036038101906102459190611769565b610eaa565b604051610257919061191d565b60405180910390f35b61027a60048036038101906102759190611a84565b610f03565b005b610296600480360381019061029191906118d5565b6111de565b6040516102a4929190611ae4565b60405180910390f35b6102c760048036038101906102c29190611b14565b6112aa565b6040516102d5929190611ae4565b60405180910390f35b6102f860048036038101906102f39190611b14565b611399565b604051610305919061191d565b60405180910390f35b6103166113de565b60058585604051610328929190611ba0565b90815260200160405180910390208383604051610346929190611ba0565b908152602001604051809103902060009054906101000a900460ff166103a1576040517f08c379a000000000000000000000000000000000000000000000000000000000815260040161039890611c2b565b60405180910390fd5b6000600386866040516103b5929190611ba0565b908152602001604051809103902084846040516103d3929190611ba0565b90815260200160405180910390209050806040518060600160405290816000820180546103ff90611c7a565b80601f016020809104026020016040519081016040528092919081815260200182805461042b90611c7a565b80156104785780601f1061044d57610100808354040283529160200191610478565b820191906000526020600020905b81548152906001019060200180831161045b57829003601f168201915b5050505050815260200160018201805461049190611c7a565b80601f01602080910402602001604051908101604052809291908181526020018280546104bd90611c7a565b801561050a5780601f106104df5761010080835404028352916020019161050a565b820191906000526020600020905b8154815290600101906020018083116104ed57829003601f168201915b5050505050815260200160028201805461052390611c7a565b80601f016020809104026020016040519081016040528092919081815260200182805461054f90611c7a565b801561059c5780601f106105715761010080835404028352916020019161059c565b820191906000526020600020905b81548152906001019060200180831161057f57829003601f168201915b505050505081525050915050949350505050565b600382805160208101820180518482526020830160208501208183528095505050505050818051602081018201805184825260208301602085012081835280955050505050506000915091505080600001805461060c90611c7a565b80601f016020809104026020016040519081016040528092919081815260200182805461063890611c7a565b80156106855780601f1061065a57610100808354040283529160200191610685565b820191906000526020600020905b81548152906001019060200180831161066857829003601f168201915b50505050509080600101805461069a90611c7a565b80601f01602080910402602001604051908101604052809291908181526020018280546106c690611c7a565b80156107135780601f106106e857610100808354040283529160200191610713565b820191906000526020600020905b8154815290600101906020018083116106f657829003601f168201915b50505050509080600201805461072890611c7a565b80601f016020809104026020016040519081016040528092919081815260200182805461075490611c7a565b80156107a15780601f10610776576101008083540402835291602001916107a1565b820191906000526020600020905b81548152906001019060200180831161078457829003601f168201915b5050505050905083565b60006004600160008473ffffffffffffffffffffffffffffffffffffffff1673ffffffffffffffffffffffffffffffffffffffff1681526020019081526020016000206000016040516107fe9190611d43565b908152602001604051809103902060008373ffffffffffffffffffffffffffffffffffffffff1673ffffffffffffffffffffffffffffffffffffffff16815260200190815260200160002060009054906101000a900460ff169050919050565b600582805160208101820180518482526020830160208501208183528095505050505050818051602081018201805184825260208301602085012081835280955050505050506000915091509054906101000a900460ff1681565b60008054906101000a900473ffffffffffffffffffffffffffffffffffffffff1681565b6108e56113ff565b6000600160008473ffffffffffffffffffffffffffffffffffffffff1673ffffffffffffffffffffffffffffffffffffffff16815260200190815260200160002090508060405180604001604052908160008201805461094490611c7a565b80601f016020809104026020016040519081016040528092919081815260200182805461097090611c7a565b80156109bd5780601f10610992576101008083540402835291602001916109bd565b820191906000526020600020905b8154815290600101906020018083116109a057829003601f168201915b505050505081526020016001820160009054906101000a900473ffffffffffffffffffffffffffffffffffffffff1673ffffffffffffffffffffffffffffffffffffffff1673ffffffffffffffffffffffffffffffffffffffff1681525050915050919050565b60058686604051610a36929190611ba0565b90815260200160405180910390208484604051610a54929190611ba0565b908152602001604051809103902060009054906101000a900460ff1615610ab0576040517f08c379a0000000000000000000000000000000000000000000000000000000008152600401610aa790611da6565b60405180910390fd5b600060028787604051610ac4929190611ba0565b908152602001604051809103902060003373ffffffffffffffffffffffffffffffffffffffff1673ffffffffffffffffffffffffffffffffffffffff16815260200190815260200160002090506000610bed826000018054610b2590611c7a565b80601f0160208091040260200160405190810160405280929190818152602001828054610b5190611c7a565b8015610b9e5780601f10610b7357610100808354040283529160200191610b9e565b820191906000526020600020905b815481529060010190602001808311610b8157829003601f168201915b505050505089898080601f016020809104026020016040519081016040528093929190818152602001838380828437600081840152601f19601f82011690508083019250505050505050610eaa565b905080610c2f576040517f08c379a0000000000000000000000000000000000000000000000000000000008152600401610c2690611e38565b60405180910390fd5b600060405180606001604052808a8a8080601f016020809104026020016040519081016040528093929190818152602001838380828437600081840152601f19601f82011690508083019250505050505050815260200186868080601f016020809104026020016040519081016040528093929190818152602001838380828437600081840152601f19601f82011690508083019250505050505050815260200188888080601f016020809104026020016040519081016040528093929190818152602001838380828437600081840152601f19601f8201169050808301925050505050505081525090508060038a8a604051610d2d929190611ba0565b90815260200160405180910390208888604051610d4b929190611ba0565b90815260200160405180910390206000820151816000019081610d6e9190611ff9565b506020820151816001019081610d849190611ff9565b506040820151816002019081610d9a9190611ff9565b50905050600160058a8a604051610db2929190611ba0565b90815260200160405180910390208888604051610dd0929190611ba0565b908152602001604051809103902060006101000a81548160ff0219169083151502179055507f83578a73a4c3a7c76663015e244ba32c50fba3d5fbc64a08394a6a5083f6b059898989898989604051610e2e9695949392919061211e565b60405180910390a1505050505050505050565b60008060009054906101000a900473ffffffffffffffffffffffffffffffffffffffff1673ffffffffffffffffffffffffffffffffffffffff168273ffffffffffffffffffffffffffffffffffffffff1603610ea05760019050610ea5565b600090505b919050565b600081604051602001610ebd91906121ad565b6040516020818303038152906040528051906020012083604051602001610ee491906121ad565b6040516020818303038152906040528051906020012014905092915050565b60008054906101000a900473ffffffffffffffffffffffffffffffffffffffff1673ffffffffffffffffffffffffffffffffffffffff163373ffffffffffffffffffffffffffffffffffffffff1614610f91576040517f08c379a0000000000000000000000000000000000000000000000000000000008152600401610f8890612236565b60405180910390fd5b600160048484604051610fa5929190611ba0565b908152602001604051809103902060008373ffffffffffffffffffffffffffffffffffffffff1673ffffffffffffffffffffffffffffffffffffffff16815260200190815260200160002060006101000a81548160ff0219169083151502179055506000604051806040016040528085858080601f016020809104026020016040519081016040528093929190818152602001838380828437600081840152601f19601f8201169050808301925050505050505081526020018373ffffffffffffffffffffffffffffffffffffffff168152509050806002858560405161108d929190611ba0565b908152602001604051809103902060008473ffffffffffffffffffffffffffffffffffffffff1673ffffffffffffffffffffffffffffffffffffffff16815260200190815260200160002060008201518160000190816110ed9190611ff9565b5060208201518160010160006101000a81548173ffffffffffffffffffffffffffffffffffffffff021916908373ffffffffffffffffffffffffffffffffffffffff16021790555090505080600160008473ffffffffffffffffffffffffffffffffffffffff1673ffffffffffffffffffffffffffffffffffffffff168152602001908152602001600020600082015181600001908161118d9190611ff9565b5060208201518160010160006101000a81548173ffffffffffffffffffffffffffffffffffffffff021916908373ffffffffffffffffffffffffffffffffffffffff16021790555090505050505050565b600160205280600052604060002060009150905080600001805461120190611c7a565b80601f016020809104026020016040519081016040528092919081815260200182805461122d90611c7a565b801561127a5780601f1061124f5761010080835404028352916020019161127a565b820191906000526020600020905b81548152906001019060200180831161125d57829003601f168201915b5050505050908060010160009054906101000a900473ffffffffffffffffffffffffffffffffffffffff16905082565b600282805160208101820180518482526020830160208501208183528095505050505050602052806000526040600020600091509150508060000180546112f090611c7a565b80601f016020809104026020016040519081016040528092919081815260200182805461131c90611c7a565b80156113695780601f1061133e57610100808354040283529160200191611369565b820191906000526020600020905b81548152906001019060200180831161134c57829003601f168201915b5050505050908060010160009054906101000a900473ffffffffffffffffffffffffffffffffffffffff16905082565b6004828051602081018201805184825260208301602085012081835280955050505050506020528060005260406000206000915091509054906101000a900460ff1681565b60405180606001604052806060815260200160608152602001606081525090565b604051806040016040528060608152602001600073ffffffffffffffffffffffffffffffffffffffff1681525090565b6000604051905090565b600080fd5b600080fd5b600080fd5b600080fd5b600080fd5b60008083601f84011261146857611467611443565b5b8235905067ffffffffffffffff81111561148557611484611448565b5b6020830191508360018202830111156114a1576114a061144d565b5b9250929050565b600080600080604085870312156114c2576114c1611439565b5b600085013567ffffffffffffffff8111156114e0576114df61143e565b5b6114ec87828801611452565b9450945050602085013567ffffffffffffffff81111561150f5761150e61143e565b5b61151b87828801611452565b925092505092959194509250565b600081519050919050565b600082825260208201905092915050565b60005b83811015611563578082015181840152602081019050611548565b60008484015250505050565b6000601f19601f8301169050919050565b600061158b82611529565b6115958185611534565b93506115a5818560208601611545565b6115ae8161156f565b840191505092915050565b600060608301600083015184820360008601526115d68282611580565b915050602083015184820360208601526115f08282611580565b9150506040830151848203604086015261160a8282611580565b9150508091505092915050565b6000602082019050818103600083015261163181846115b9565b905092915050565b600080fd5b7f4e487b7100000000000000000000000000000000000000000000000000000000600052604160045260246000fd5b6116768261156f565b810181811067ffffffffffffffff821117156116955761169461163e565b5b80604052505050565b60006116a861142f565b90506116b4828261166d565b919050565b600067ffffffffffffffff8211156116d4576116d361163e565b5b6116dd8261156f565b9050602081019050919050565b82818337600083830152505050565b600061170c611707846116b9565b61169e565b90508281526020810184848401111561172857611727611639565b5b6117338482856116ea565b509392505050565b600082601f8301126117505761174f611443565b5b81356117608482602086016116f9565b91505092915050565b600080604083850312156117805761177f611439565b5b600083013567ffffffffffffffff81111561179e5761179d61143e565b5b6117aa8582860161173b565b925050602083013567ffffffffffffffff8111156117cb576117ca61143e565b5b6117d78582860161173b565b9150509250929050565b600082825260208201905092915050565b60006117fd82611529565b61180781856117e1565b9350611817818560208601611545565b6118208161156f565b840191505092915050565b6000606082019050818103600083015261184581866117f2565b9050818103602083015261185981856117f2565b9050818103604083015261186d81846117f2565b9050949350505050565b600073ffffffffffffffffffffffffffffffffffffffff82169050919050565b60006118a282611877565b9050919050565b6118b281611897565b81146118bd57600080fd5b50565b6000813590506118cf816118a9565b92915050565b6000602082840312156118eb576118ea611439565b5b60006118f9848285016118c0565b91505092915050565b60008115159050919050565b61191781611902565b82525050565b6000602082019050611932600083018461190e565b92915050565b61194181611897565b82525050565b600060208201905061195c6000830184611938565b92915050565b61196b81611897565b82525050565b6000604083016000830151848203600086015261198e8282611580565b91505060208301516119a36020860182611962565b508091505092915050565b600060208201905081810360008301526119c88184611971565b905092915050565b600080600080600080606087890312156119ed576119ec611439565b5b600087013567ffffffffffffffff811115611a0b57611a0a61143e565b5b611a1789828a01611452565b9650965050602087013567ffffffffffffffff811115611a3a57611a3961143e565b5b611a4689828a01611452565b9450945050604087013567ffffffffffffffff811115611a6957611a6861143e565b5b611a7589828a01611452565b92509250509295509295509295565b600080600060408486031215611a9d57611a9c611439565b5b600084013567ffffffffffffffff811115611abb57611aba61143e565b5b611ac786828701611452565b93509350506020611ada868287016118c0565b9150509250925092565b60006040820190508181036000830152611afe81856117f2565b9050611b0d6020830184611938565b9392505050565b60008060408385031215611b2b57611b2a611439565b5b600083013567ffffffffffffffff811115611b4957611b4861143e565b5b611b558582860161173b565b9250506020611b66858286016118c0565b9150509250929050565b600081905092915050565b6000611b878385611b70565b9350611b948385846116ea565b82840190509392505050565b6000611bad828486611b7b565b91508190509392505050565b7f4365727469666963617465207769746820656e74657265642063726564656e7460008201527f69616c73206973206e6f742070726573656e7400000000000000000000000000602082015250565b6000611c156033836117e1565b9150611c2082611bb9565b604082019050919050565b60006020820190508181036000830152611c4481611c08565b9050919050565b7f4e487b7100000000000000000000000000000000000000000000000000000000600052602260045260246000fd5b60006002820490506001821680611c9257607f821691505b602082108103611ca557611ca4611c4b565b5b50919050565b60008190508160005260206000209050919050565b60008154611ccd81611c7a565b611cd78186611b70565b94506001821660008114611cf25760018114611d0757611d3a565b60ff1983168652811515820286019350611d3a565b611d1085611cab565b60005b83811015611d3257815481890152600182019150602081019050611d13565b838801955050505b50505092915050565b6000611d4f8284611cc0565b915081905092915050565b7f53747564656e7420616c72656164792061646465640000000000000000000000600082015250565b6000611d906015836117e1565b9150611d9b82611d5a565b602082019050919050565b60006020820190508181036000830152611dbf81611d83565b9050919050565b7f506c6561736520616464206f6e6c79206365727469666963617465732074686160008201527f742062656c6f6e6720746f20796f757220756e76696572736974790000000000602082015250565b6000611e22603b836117e1565b9150611e2d82611dc6565b604082019050919050565b60006020820190508181036000830152611e5181611e15565b9050919050565b60006020601f8301049050919050565b600082821b905092915050565b600060088302611ea57fffffffffffffffffffffffffffffffffffffffffffffffffffffffffffffffff82611e68565b611eaf8683611e68565b95508019841693508086168417925050509392505050565b6000819050919050565b6000819050919050565b6000611ef6611ef1611eec84611ec7565b611ed1565b611ec7565b9050919050565b6000819050919050565b611f1083611edb565b611f24611f1c82611efd565b848454611e75565b825550505050565b600090565b611f39611f2c565b611f44818484611f07565b505050565b5b81811015611f6857611f5d600082611f31565b600181019050611f4a565b5050565b601f821115611fad57611f7e81611cab565b611f8784611e58565b81016020851015611f96578190505b611faa611fa285611e58565b830182611f49565b50505b505050565b600082821c905092915050565b6000611fd060001984600802611fb2565b1980831691505092915050565b6000611fe98383611fbf565b9150826002028217905092915050565b61200282611529565b67ffffffffffffffff81111561201b5761201a61163e565b5b6120258254611c7a565b612030828285611f6c565b600060209050601f8311600181146120635760008415612051578287015190505b61205b8582611fdd565b8655506120c3565b601f19841661207186611cab565b60005b8281101561209957848901518255600182019150602085019450602081019050612074565b868310156120b657848901516120b2601f891682611fbf565b8355505b6001600288020188555050505b505050505050565b60006120d783856117e1565b93506120e48385846116ea565b6120ed8361156f565b840190509392505050565b7f43657274696669636174652055706c6f616465642073756363657366756c6c79815250565b6000608082019050818103600083015261213981888a6120cb565b9050818103602083015261214e8186886120cb565b905081810360408301526121638184866120cb565b9050612171606083016120f8565b979650505050505050565b600061218782611529565b6121918185611b70565b93506121a1818560208601611545565b80840191505092915050565b60006121b9828461217c565b915081905092915050565b7f4f6e6c79206f776e65722063616e20616363657373207468697320666561747560008201527f7265000000000000000000000000000000000000000000000000000000000000602082015250565b60006122206022836117e1565b915061222b826121c4565b604082019050919050565b6000602082019050818103600083015261224f81612213565b905091905056fea26469706673582212202cd006e89ccbcfd93eb8ee9ebc90d150d0b7673425d410a126e899ab08ec726464736f6c63430008130033",
  "linkReferences": {},
  "deployedLinkReferences": {}
}